{
  "contractName": "ColorToken",
  "abi": [
    {
      "inputs": [
        {
          "internalType": "string",
          "name": "name_",
          "type": "string"
        },
        {
          "internalType": "string",
          "name": "symbol_",
          "type": "string"
        },
        {
          "internalType": "uint256",
          "name": "totalSupply_",
          "type": "uint256"
        },
        {
          "internalType": "uint8",
          "name": "decimals_",
          "type": "uint8"
        }
      ],
      "stateMutability": "nonpayable",
      "type": "constructor"
    },
    {
      "anonymous": false,
      "inputs": [
        {
          "indexed": true,
          "internalType": "address",
          "name": "owner",
          "type": "address"
        },
        {
          "indexed": true,
          "internalType": "address",
          "name": "spender",
          "type": "address"
        },
        {
          "indexed": false,
          "internalType": "uint256",
          "name": "value",
          "type": "uint256"
        }
      ],
      "name": "Approval",
      "type": "event"
    },
    {
      "anonymous": false,
      "inputs": [
        {
          "indexed": true,
          "internalType": "address",
          "name": "delegator",
          "type": "address"
        },
        {
          "indexed": true,
          "internalType": "address",
          "name": "fromDelegate",
          "type": "address"
        },
        {
          "indexed": true,
          "internalType": "address",
          "name": "toDelegate",
          "type": "address"
        }
      ],
      "name": "DelegateChanged",
      "type": "event"
    },
    {
      "anonymous": false,
      "inputs": [
        {
          "indexed": true,
          "internalType": "address",
          "name": "delegate",
          "type": "address"
        },
        {
          "indexed": false,
          "internalType": "uint256",
          "name": "previousBalance",
          "type": "uint256"
        },
        {
          "indexed": false,
          "internalType": "uint256",
          "name": "newBalance",
          "type": "uint256"
        }
      ],
      "name": "DelegateVotesChanged",
      "type": "event"
    },
    {
      "anonymous": false,
      "inputs": [
        {
          "indexed": true,
          "internalType": "address",
          "name": "previousOwner",
          "type": "address"
        },
        {
          "indexed": true,
          "internalType": "address",
          "name": "newOwner",
          "type": "address"
        }
      ],
      "name": "OwnershipTransferred",
      "type": "event"
    },
    {
      "anonymous": false,
      "inputs": [
        {
          "indexed": false,
          "internalType": "address",
          "name": "account",
          "type": "address"
        }
      ],
      "name": "Paused",
      "type": "event"
    },
    {
      "anonymous": false,
      "inputs": [
        {
          "indexed": false,
          "internalType": "uint256",
          "name": "id",
          "type": "uint256"
        }
      ],
      "name": "Snapshot",
      "type": "event"
    },
    {
      "anonymous": false,
      "inputs": [
        {
          "indexed": true,
          "internalType": "address",
          "name": "from",
          "type": "address"
        },
        {
          "indexed": true,
          "internalType": "address",
          "name": "to",
          "type": "address"
        },
        {
          "indexed": false,
          "internalType": "uint256",
          "name": "value",
          "type": "uint256"
        }
      ],
      "name": "Transfer",
      "type": "event"
    },
    {
      "anonymous": false,
      "inputs": [
        {
          "indexed": false,
          "internalType": "address",
          "name": "account",
          "type": "address"
        }
      ],
      "name": "Unpaused",
      "type": "event"
    },
    {
      "inputs": [],
      "name": "DOMAIN_SEPARATOR",
      "outputs": [
        {
          "internalType": "bytes32",
          "name": "",
          "type": "bytes32"
        }
      ],
      "stateMutability": "view",
      "type": "function"
    },
    {
      "inputs": [
        {
          "internalType": "address",
          "name": "owner",
          "type": "address"
        },
        {
          "internalType": "address",
          "name": "spender",
          "type": "address"
        }
      ],
      "name": "allowance",
      "outputs": [
        {
          "internalType": "uint256",
          "name": "",
          "type": "uint256"
        }
      ],
      "stateMutability": "view",
      "type": "function"
    },
    {
      "inputs": [
        {
          "internalType": "address",
          "name": "spender",
          "type": "address"
        },
        {
          "internalType": "uint256",
          "name": "amount",
          "type": "uint256"
        }
      ],
      "name": "approve",
      "outputs": [
        {
          "internalType": "bool",
          "name": "",
          "type": "bool"
        }
      ],
      "stateMutability": "nonpayable",
      "type": "function"
    },
    {
      "inputs": [
        {
          "internalType": "address",
          "name": "account",
          "type": "address"
        }
      ],
      "name": "balanceOf",
      "outputs": [
        {
          "internalType": "uint256",
          "name": "",
          "type": "uint256"
        }
      ],
      "stateMutability": "view",
      "type": "function"
    },
    {
      "inputs": [
        {
          "internalType": "address",
          "name": "account",
          "type": "address"
        },
        {
          "internalType": "uint256",
          "name": "snapshotId",
          "type": "uint256"
        }
      ],
      "name": "balanceOfAt",
      "outputs": [
        {
          "internalType": "uint256",
          "name": "",
          "type": "uint256"
        }
      ],
      "stateMutability": "view",
      "type": "function"
    },
    {
      "inputs": [
        {
          "internalType": "uint256",
          "name": "amount",
          "type": "uint256"
        }
      ],
      "name": "burn",
      "outputs": [],
      "stateMutability": "nonpayable",
      "type": "function"
    },
    {
      "inputs": [
        {
          "internalType": "address",
          "name": "account",
          "type": "address"
        },
        {
          "internalType": "uint256",
          "name": "amount",
          "type": "uint256"
        }
      ],
      "name": "burnFrom",
      "outputs": [],
      "stateMutability": "nonpayable",
      "type": "function"
    },
    {
      "inputs": [
        {
          "internalType": "address",
          "name": "account",
          "type": "address"
        },
        {
          "internalType": "uint32",
          "name": "pos",
          "type": "uint32"
        }
      ],
      "name": "checkpoints",
      "outputs": [
        {
          "components": [
            {
              "internalType": "uint32",
              "name": "fromBlock",
              "type": "uint32"
            },
            {
              "internalType": "uint224",
              "name": "votes",
              "type": "uint224"
            }
          ],
          "internalType": "struct ERC20Votes.Checkpoint",
          "name": "",
          "type": "tuple"
        }
      ],
      "stateMutability": "view",
      "type": "function"
    },
    {
      "inputs": [],
      "name": "decimals",
      "outputs": [
        {
          "internalType": "uint8",
          "name": "",
          "type": "uint8"
        }
      ],
      "stateMutability": "view",
      "type": "function"
    },
    {
      "inputs": [
        {
          "internalType": "address",
          "name": "spender",
          "type": "address"
        },
        {
          "internalType": "uint256",
          "name": "subtractedValue",
          "type": "uint256"
        }
      ],
      "name": "decreaseAllowance",
      "outputs": [
        {
          "internalType": "bool",
          "name": "",
          "type": "bool"
        }
      ],
      "stateMutability": "nonpayable",
      "type": "function"
    },
    {
      "inputs": [
        {
          "internalType": "address",
          "name": "delegatee",
          "type": "address"
        }
      ],
      "name": "delegate",
      "outputs": [],
      "stateMutability": "nonpayable",
      "type": "function"
    },
    {
      "inputs": [
        {
          "internalType": "address",
          "name": "delegatee",
          "type": "address"
        },
        {
          "internalType": "uint256",
          "name": "nonce",
          "type": "uint256"
        },
        {
          "internalType": "uint256",
          "name": "expiry",
          "type": "uint256"
        },
        {
          "internalType": "uint8",
          "name": "v",
          "type": "uint8"
        },
        {
          "internalType": "bytes32",
          "name": "r",
          "type": "bytes32"
        },
        {
          "internalType": "bytes32",
          "name": "s",
          "type": "bytes32"
        }
      ],
      "name": "delegateBySig",
      "outputs": [],
      "stateMutability": "nonpayable",
      "type": "function"
    },
    {
      "inputs": [
        {
          "internalType": "address",
          "name": "account",
          "type": "address"
        }
      ],
      "name": "delegates",
      "outputs": [
        {
          "internalType": "address",
          "name": "",
          "type": "address"
        }
      ],
      "stateMutability": "view",
      "type": "function"
    },
    {
      "inputs": [
        {
          "internalType": "address",
          "name": "token",
          "type": "address"
        },
        {
          "internalType": "uint256",
          "name": "amount",
          "type": "uint256"
        }
      ],
      "name": "flashFee",
      "outputs": [
        {
          "internalType": "uint256",
          "name": "",
          "type": "uint256"
        }
      ],
      "stateMutability": "view",
      "type": "function"
    },
    {
      "inputs": [
        {
          "internalType": "contract IERC3156FlashBorrower",
          "name": "receiver",
          "type": "address"
        },
        {
          "internalType": "address",
          "name": "token",
          "type": "address"
        },
        {
          "internalType": "uint256",
          "name": "amount",
          "type": "uint256"
        },
        {
          "internalType": "bytes",
          "name": "data",
          "type": "bytes"
        }
      ],
      "name": "flashLoan",
      "outputs": [
        {
          "internalType": "bool",
          "name": "",
          "type": "bool"
        }
      ],
      "stateMutability": "nonpayable",
      "type": "function"
    },
    {
      "inputs": [
        {
          "internalType": "uint256",
          "name": "blockNumber",
          "type": "uint256"
        }
      ],
      "name": "getPastTotalSupply",
      "outputs": [
        {
          "internalType": "uint256",
          "name": "",
          "type": "uint256"
        }
      ],
      "stateMutability": "view",
      "type": "function"
    },
    {
      "inputs": [
        {
          "internalType": "address",
          "name": "account",
          "type": "address"
        },
        {
          "internalType": "uint256",
          "name": "blockNumber",
          "type": "uint256"
        }
      ],
      "name": "getPastVotes",
      "outputs": [
        {
          "internalType": "uint256",
          "name": "",
          "type": "uint256"
        }
      ],
      "stateMutability": "view",
      "type": "function"
    },
    {
      "inputs": [
        {
          "internalType": "address",
          "name": "account",
          "type": "address"
        }
      ],
      "name": "getVotes",
      "outputs": [
        {
          "internalType": "uint256",
          "name": "",
          "type": "uint256"
        }
      ],
      "stateMutability": "view",
      "type": "function"
    },
    {
      "inputs": [
        {
          "internalType": "address",
          "name": "spender",
          "type": "address"
        },
        {
          "internalType": "uint256",
          "name": "addedValue",
          "type": "uint256"
        }
      ],
      "name": "increaseAllowance",
      "outputs": [
        {
          "internalType": "bool",
          "name": "",
          "type": "bool"
        }
      ],
      "stateMutability": "nonpayable",
      "type": "function"
    },
    {
      "inputs": [
        {
          "internalType": "address",
          "name": "token",
          "type": "address"
        }
      ],
      "name": "maxFlashLoan",
      "outputs": [
        {
          "internalType": "uint256",
          "name": "",
          "type": "uint256"
        }
      ],
      "stateMutability": "view",
      "type": "function"
    },
    {
      "inputs": [],
      "name": "name",
      "outputs": [
        {
          "internalType": "string",
          "name": "",
          "type": "string"
        }
      ],
      "stateMutability": "view",
      "type": "function"
    },
    {
      "inputs": [
        {
          "internalType": "address",
          "name": "owner",
          "type": "address"
        }
      ],
      "name": "nonces",
      "outputs": [
        {
          "internalType": "uint256",
          "name": "",
          "type": "uint256"
        }
      ],
      "stateMutability": "view",
      "type": "function"
    },
    {
      "inputs": [
        {
          "internalType": "address",
          "name": "account",
          "type": "address"
        }
      ],
      "name": "numCheckpoints",
      "outputs": [
        {
          "internalType": "uint32",
          "name": "",
          "type": "uint32"
        }
      ],
      "stateMutability": "view",
      "type": "function"
    },
    {
      "inputs": [],
      "name": "owner",
      "outputs": [
        {
          "internalType": "address",
          "name": "",
          "type": "address"
        }
      ],
      "stateMutability": "view",
      "type": "function"
    },
    {
      "inputs": [],
      "name": "paused",
      "outputs": [
        {
          "internalType": "bool",
          "name": "",
          "type": "bool"
        }
      ],
      "stateMutability": "view",
      "type": "function"
    },
    {
      "inputs": [
        {
          "internalType": "address",
          "name": "owner",
          "type": "address"
        },
        {
          "internalType": "address",
          "name": "spender",
          "type": "address"
        },
        {
          "internalType": "uint256",
          "name": "value",
          "type": "uint256"
        },
        {
          "internalType": "uint256",
          "name": "deadline",
          "type": "uint256"
        },
        {
          "internalType": "uint8",
          "name": "v",
          "type": "uint8"
        },
        {
          "internalType": "bytes32",
          "name": "r",
          "type": "bytes32"
        },
        {
          "internalType": "bytes32",
          "name": "s",
          "type": "bytes32"
        }
      ],
      "name": "permit",
      "outputs": [],
      "stateMutability": "nonpayable",
      "type": "function"
    },
    {
      "inputs": [],
      "name": "renounceOwnership",
      "outputs": [],
      "stateMutability": "nonpayable",
      "type": "function"
    },
    {
      "inputs": [],
      "name": "symbol",
      "outputs": [
        {
          "internalType": "string",
          "name": "",
          "type": "string"
        }
      ],
      "stateMutability": "view",
      "type": "function"
    },
    {
      "inputs": [],
      "name": "totalSupply",
      "outputs": [
        {
          "internalType": "uint256",
          "name": "",
          "type": "uint256"
        }
      ],
      "stateMutability": "view",
      "type": "function"
    },
    {
      "inputs": [
        {
          "internalType": "uint256",
          "name": "snapshotId",
          "type": "uint256"
        }
      ],
      "name": "totalSupplyAt",
      "outputs": [
        {
          "internalType": "uint256",
          "name": "",
          "type": "uint256"
        }
      ],
      "stateMutability": "view",
      "type": "function"
    },
    {
      "inputs": [
        {
          "internalType": "address",
          "name": "to",
          "type": "address"
        },
        {
          "internalType": "uint256",
          "name": "amount",
          "type": "uint256"
        }
      ],
      "name": "transfer",
      "outputs": [
        {
          "internalType": "bool",
          "name": "",
          "type": "bool"
        }
      ],
      "stateMutability": "nonpayable",
      "type": "function"
    },
    {
      "inputs": [
        {
          "internalType": "address",
          "name": "from",
          "type": "address"
        },
        {
          "internalType": "address",
          "name": "to",
          "type": "address"
        },
        {
          "internalType": "uint256",
          "name": "amount",
          "type": "uint256"
        }
      ],
      "name": "transferFrom",
      "outputs": [
        {
          "internalType": "bool",
          "name": "",
          "type": "bool"
        }
      ],
      "stateMutability": "nonpayable",
      "type": "function"
    },
    {
      "inputs": [
        {
          "internalType": "address",
          "name": "newOwner",
          "type": "address"
        }
      ],
      "name": "transferOwnership",
      "outputs": [],
      "stateMutability": "nonpayable",
      "type": "function"
    },
    {
      "inputs": [],
      "name": "snapshot",
      "outputs": [],
      "stateMutability": "nonpayable",
      "type": "function"
    },
    {
      "inputs": [],
      "name": "pause",
      "outputs": [],
      "stateMutability": "nonpayable",
      "type": "function"
    },
    {
      "inputs": [],
      "name": "unpause",
      "outputs": [],
      "stateMutability": "nonpayable",
      "type": "function"
    },
    {
      "inputs": [
        {
          "internalType": "address",
          "name": "to",
          "type": "address"
        },
        {
          "internalType": "uint256",
          "name": "amount",
          "type": "uint256"
        }
      ],
      "name": "mint",
      "outputs": [],
      "stateMutability": "nonpayable",
      "type": "function"
    }
  ],
  "bytecode": "0x6101606040527f6e71edae12b1b97f4d1f60370fef10105fa2faae0126114a169c64845d6126c9610140908152503480156200003a57600080fd5b50604051620070343803806200703483398181016040528101906200006091906200116b565b83806040518060400160405280600181526020017f310000000000000000000000000000000000000000000000000000000000000081525086868160039080519060200190620000b29291906200101b565b508060049080519060200190620000cb9291906200101b565b505050620000ee620000e2620001fc60201b60201c565b6200020460201b60201c565b6000600960146101000a81548160ff02191690831515021790555060008280519060200120905060008280519060200120905060007f8b73c3c69bb8fe3d512ecc4cf759cc79239f7b179b0ffacaa9a75d522b39400f90508260e081815250508161010081815250504660a0818152505062000172818484620002ca60201b60201c565b608081815250503073ffffffffffffffffffffffffffffffffffffffff1660c08173ffffffffffffffffffffffffffffffffffffffff1660601b815250508061012081815250505050505050508060ff16600a620001d1919062001578565b82620001de9190620016b5565b9150620001f233836200030660201b60201c565b5050505062001a66565b600033905090565b6000600960009054906101000a900473ffffffffffffffffffffffffffffffffffffffff16905081600960006101000a81548173ffffffffffffffffffffffffffffffffffffffff021916908373ffffffffffffffffffffffffffffffffffffffff1602179055508173ffffffffffffffffffffffffffffffffffffffff168173ffffffffffffffffffffffffffffffffffffffff167f8be0079c531659141344cd1fd0a4f28419497f9722a3daafe3b4186f6b6457e060405160405180910390a35050565b60008383834630604051602001620002e7959493929190620012ff565b6040516020818303038152906040528051906020012090509392505050565b6200031d82826200032160201b620019f61760201c565b5050565b620003388282620003df60201b62001a831760201c565b620003486200055860201b60201c565b7bffffffffffffffffffffffffffffffffffffffffffffffffffffffff16620003766200057c60201b60201c565b1115620003ba576040517f08c379a0000000000000000000000000000000000000000000000000000000008152600401620003b1906200137e565b60405180910390fd5b620003d9600d6200058660201b62001be317836200059e60201b60201c565b50505050565b600073ffffffffffffffffffffffffffffffffffffffff168273ffffffffffffffffffffffffffffffffffffffff16141562000452576040517f08c379a00000000000000000000000000000000000000000000000000000000081526004016200044990620013e4565b60405180910390fd5b6200046660008383620008bb60201b60201c565b80600260008282546200047a9190620014c0565b92505081905550806000808473ffffffffffffffffffffffffffffffffffffffff1673ffffffffffffffffffffffffffffffffffffffff1681526020019081526020016000206000828254620004d19190620014c0565b925050819055508173ffffffffffffffffffffffffffffffffffffffff16600073ffffffffffffffffffffffffffffffffffffffff167fddf252ad1be2c89b69c2b068fc378daa952ba7f163c4a11628f55a4df523b3ef8360405162000538919062001406565b60405180910390a362000554600083836200092b60201b60201c565b5050565b60007bffffffffffffffffffffffffffffffffffffffffffffffffffffffff905090565b6000600254905090565b60008183620005969190620014c0565b905092915050565b60008060008580549050905060008114620006375785600182620005c3919062001716565b81548110620005fb577f4e487b7100000000000000000000000000000000000000000000000000000000600052603260045260246000fd5b9060005260206000200160000160049054906101000a90047bffffffffffffffffffffffffffffffffffffffffffffffffffffffff166200063a565b60005b7bffffffffffffffffffffffffffffffffffffffffffffffffffffffff1692506200066683858760201c565b9150600081118015620006e35750438660018362000685919062001716565b81548110620006bd577f4e487b7100000000000000000000000000000000000000000000000000000000600052603260045260246000fd5b9060005260206000200160000160009054906101000a900463ffffffff1663ffffffff16145b15620007a857620006ff826200094860201b62001bf91760201c565b866001836200070f919062001716565b8154811062000747577f4e487b7100000000000000000000000000000000000000000000000000000000600052603260045260246000fd5b9060005260206000200160000160046101000a8154817bffffffffffffffffffffffffffffffffffffffffffffffffffffffff02191690837bffffffffffffffffffffffffffffffffffffffffffffffffffffffff160217905550620008b2565b856040518060400160405280620007ca43620009b660201b62001c641760201c565b63ffffffff168152602001620007eb856200094860201b62001bf91760201c565b7bffffffffffffffffffffffffffffffffffffffffffffffffffffffff168152509080600181540180825580915050600190039060005260206000200160009091909190915060008201518160000160006101000a81548163ffffffff021916908363ffffffff16021790555060208201518160000160046101000a8154817bffffffffffffffffffffffffffffffffffffffffffffffffffffffff02191690837bffffffffffffffffffffffffffffffffffffffffffffffffffffffff16021790555050505b50935093915050565b620008cb62000a0c60201b60201c565b156200090e576040517f08c379a000000000000000000000000000000000000000000000000000000000815260040162000905906200135c565b60405180910390fd5b6200092683838362000a2360201b62001cb71760201c565b505050565b6200094383838362000b1e60201b62001d711760201c565b505050565b60007bffffffffffffffffffffffffffffffffffffffffffffffffffffffff8016821115620009ae576040517f08c379a0000000000000000000000000000000000000000000000000000000008152600401620009a590620013a0565b60405180910390fd5b819050919050565b600063ffffffff801682111562000a04576040517f08c379a0000000000000000000000000000000000000000000000000000000008152600401620009fb90620013c2565b60405180910390fd5b819050919050565b6000600960149054906101000a900460ff16905090565b62000a3b83838362000b6e60201b62001d9c1760201c565b600073ffffffffffffffffffffffffffffffffffffffff168373ffffffffffffffffffffffffffffffffffffffff16141562000a985762000a828262000b7360201b60201c565b62000a9262000bd660201b60201c565b62000b19565b600073ffffffffffffffffffffffffffffffffffffffff168273ffffffffffffffffffffffffffffffffffffffff16141562000af55762000adf8362000b7360201b60201c565b62000aef62000bd660201b60201c565b62000b18565b62000b068362000b7360201b60201c565b62000b178262000b7360201b60201c565b5b5b505050565b62000b3683838362000bfa60201b62001da11760201c565b62000b6962000b4b8462000bff60201b60201c565b62000b5c8462000bff60201b60201c565b8362000c6860201b60201c565b505050565b505050565b62000bd3600560008373ffffffffffffffffffffffffffffffffffffffff1673ffffffffffffffffffffffffffffffffffffffff16815260200190815260200160002062000bc78362000e8b60201b60201c565b62000ed360201b60201c565b50565b62000bf8600662000bec6200057c60201b60201c565b62000ed360201b60201c565b565b505050565b6000600b60008373ffffffffffffffffffffffffffffffffffffffff1673ffffffffffffffffffffffffffffffffffffffff16815260200190815260200160002060009054906101000a900473ffffffffffffffffffffffffffffffffffffffff169050919050565b8173ffffffffffffffffffffffffffffffffffffffff168373ffffffffffffffffffffffffffffffffffffffff161415801562000ca55750600081115b1562000e8657600073ffffffffffffffffffffffffffffffffffffffff168373ffffffffffffffffffffffffffffffffffffffff161462000d985760008062000d3f600c60008773ffffffffffffffffffffffffffffffffffffffff1673ffffffffffffffffffffffffffffffffffffffff16815260200190815260200160002062000f5f60201b62001da617856200059e60201b60201c565b915091508473ffffffffffffffffffffffffffffffffffffffff167fdec2bacdd2f05b59de34da9b523dff8be42e5e38e818c82fdb0bae774387a724838360405162000d8d92919062001423565b60405180910390a250505b600073ffffffffffffffffffffffffffffffffffffffff168273ffffffffffffffffffffffffffffffffffffffff161462000e855760008062000e2c600c60008673ffffffffffffffffffffffffffffffffffffffff1673ffffffffffffffffffffffffffffffffffffffff1681526020019081526020016000206200058660201b62001be317856200059e60201b60201c565b915091508373ffffffffffffffffffffffffffffffffffffffff167fdec2bacdd2f05b59de34da9b523dff8be42e5e38e818c82fdb0bae774387a724838360405162000e7a92919062001423565b60405180910390a250505b5b505050565b60008060008373ffffffffffffffffffffffffffffffffffffffff1673ffffffffffffffffffffffffffffffffffffffff168152602001908152602001600020549050919050565b600062000ee562000f7760201b60201c565b90508062000efc8460000162000f9560201b60201c565b101562000f5a5782600001819080600181540180825580915050600190039060005260206000200160009091909190915055826001018290806001815401808255809150506001900390600052602060002001600090919091909150555b505050565b6000818362000f6f919062001716565b905092915050565b600062000f9060086200100d60201b62001dbc1760201c565b905090565b6000808280549050141562000fae576000905062001008565b816001838054905062000fc2919062001716565b8154811062000ffa577f4e487b7100000000000000000000000000000000000000000000000000000000600052603260045260246000fd5b906000526020600020015490505b919050565b600081600001549050919050565b8280546200102990620017dc565b90600052602060002090601f0160209004810192826200104d576000855562001099565b82601f106200106857805160ff191683800117855562001099565b8280016001018555821562001099579182015b82811115620010985782518255916020019190600101906200107b565b5b509050620010a89190620010ac565b5090565b5b80821115620010c7576000816000905550600101620010ad565b5090565b6000620010e2620010dc8462001479565b62001450565b905082815260208101848484011115620010fb57600080fd5b62001108848285620017a6565b509392505050565b600082601f8301126200112257600080fd5b815162001134848260208601620010cb565b91505092915050565b6000815190506200114e8162001a32565b92915050565b600081519050620011658162001a4c565b92915050565b600080600080608085870312156200118257600080fd5b600085015167ffffffffffffffff8111156200119d57600080fd5b620011ab8782880162001110565b945050602085015167ffffffffffffffff811115620011c957600080fd5b620011d78782880162001110565b9350506040620011ea878288016200113d565b9250506060620011fd8782880162001154565b91505092959194509250565b620012148162001751565b82525050565b620012258162001765565b82525050565b60006200123a601083620014af565b91506200124782620018f3565b602082019050919050565b600062001261603083620014af565b91506200126e826200191c565b604082019050919050565b600062001288602783620014af565b915062001295826200196b565b604082019050919050565b6000620012af602683620014af565b9150620012bc82620019ba565b604082019050919050565b6000620012d6601f83620014af565b9150620012e38262001a09565b602082019050919050565b620012f9816200178f565b82525050565b600060a0820190506200131660008301886200121a565b6200132560208301876200121a565b6200133460408301866200121a565b620013436060830185620012ee565b62001352608083018462001209565b9695505050505050565b6000602082019050818103600083015262001377816200122b565b9050919050565b60006020820190508181036000830152620013998162001252565b9050919050565b60006020820190508181036000830152620013bb8162001279565b9050919050565b60006020820190508181036000830152620013dd81620012a0565b9050919050565b60006020820190508181036000830152620013ff81620012c7565b9050919050565b60006020820190506200141d6000830184620012ee565b92915050565b60006040820190506200143a6000830185620012ee565b620014496020830184620012ee565b9392505050565b60006200145c6200146f565b90506200146a828262001812565b919050565b6000604051905090565b600067ffffffffffffffff821115620014975762001496620018a6565b5b620014a282620018d5565b9050602081019050919050565b600082825260208201905092915050565b6000620014cd826200178f565b9150620014da836200178f565b9250827fffffffffffffffffffffffffffffffffffffffffffffffffffffffffffffffff0382111562001512576200151162001848565b5b828201905092915050565b6000808291508390505b60018511156200156f5780860481111562001547576200154662001848565b5b6001851615620015575780820291505b80810290506200156785620018e6565b945062001527565b94509492505050565b600062001585826200178f565b915062001592836200178f565b9250620015c17fffffffffffffffffffffffffffffffffffffffffffffffffffffffffffffffff8484620015c9565b905092915050565b600082620015db5760019050620016ae565b81620015eb5760009050620016ae565b81600181146200160457600281146200160f5762001645565b6001915050620016ae565b60ff84111562001624576200162362001848565b5b8360020a9150848211156200163e576200163d62001848565b5b50620016ae565b5060208310610133831016604e8410600b84101617156200167f5782820a90508381111562001679576200167862001848565b5b620016ae565b6200168e84848460016200151d565b92509050818404811115620016a857620016a762001848565b5b81810290505b9392505050565b6000620016c2826200178f565b9150620016cf836200178f565b9250817fffffffffffffffffffffffffffffffffffffffffffffffffffffffffffffffff04831182151516156200170b576200170a62001848565b5b828202905092915050565b600062001723826200178f565b915062001730836200178f565b92508282101562001746576200174562001848565b5b828203905092915050565b60006200175e826200176f565b9050919050565b6000819050919050565b600073ffffffffffffffffffffffffffffffffffffffff82169050919050565b6000819050919050565b600060ff82169050919050565b60005b83811015620017c6578082015181840152602081019050620017a9565b83811115620017d6576000848401525b50505050565b60006002820490506001821680620017f557607f821691505b602082108114156200180c576200180b62001877565b5b50919050565b6200181d82620018d5565b810181811067ffffffffffffffff821117156200183f576200183e620018a6565b5b80604052505050565b7f4e487b7100000000000000000000000000000000000000000000000000000000600052601160045260246000fd5b7f4e487b7100000000000000000000000000000000000000000000000000000000600052602260045260246000fd5b7f4e487b7100000000000000000000000000000000000000000000000000000000600052604160045260246000fd5b6000601f19601f8301169050919050565b60008160011c9050919050565b7f5061757361626c653a2070617573656400000000000000000000000000000000600082015250565b7f4552433230566f7465733a20746f74616c20737570706c79207269736b73206f60008201527f766572666c6f77696e6720766f74657300000000000000000000000000000000602082015250565b7f53616665436173743a2076616c756520646f65736e27742066697420696e203260008201527f3234206269747300000000000000000000000000000000000000000000000000602082015250565b7f53616665436173743a2076616c756520646f65736e27742066697420696e203360008201527f3220626974730000000000000000000000000000000000000000000000000000602082015250565b7f45524332303a206d696e7420746f20746865207a65726f206164647265737300600082015250565b62001a3d816200178f565b811462001a4957600080fd5b50565b62001a578162001799565b811462001a6357600080fd5b50565b60805160a05160c05160601c60e05161010051610120516101405161557062001ac460003960006115cc015260006123580152600061239a01526000612379015260006122ae015260006123040152600061232d01526155706000f3fe608060405234801561001057600080fd5b50600436106102275760003560e01c806370a0823111610130578063981b24d0116100b8578063d505accf1161007c578063d505accf146106b2578063d9d98ce4146106ce578063dd62ed3e146106fe578063f1127ed81461072e578063f2fde38b1461075e57610227565b8063981b24d0146105d65780639ab24eb014610606578063a457c2d714610636578063a9059cbb14610666578063c3cda5201461069657610227565b80638456cb59116100ff5780638456cb59146105565780638da5cb5b146105605780638e539e8c1461057e57806395d89b41146105ae5780639711715a146105cc57610227565b806370a08231146104d0578063715018a61461050057806379cc67901461050a5780637ecebe001461052657610227565b806340c10f19116101b35780635c19a95c116101825780635c19a95c146104065780635c975abb146104225780635cffe9de14610440578063613255ab146104705780636fcfff45146104a057610227565b806340c10f191461036e57806342966c681461038a5780634ee2cd7e146103a6578063587cde1e146103d657610227565b8063313ce567116101fa578063313ce567146102c85780633644e515146102e657806339509351146103045780633a46b1a8146103345780633f4ba83a1461036457610227565b806306fdde031461022c578063095ea7b31461024a57806318160ddd1461027a57806323b872dd14610298575b600080fd5b61023461077a565b6040516102419190614572565b60405180910390f35b610264600480360381019061025f9190613bd6565b61080c565b60405161027191906143fe565b60405180910390f35b61028261082f565b60405161028f91906149af565b60405180910390f35b6102b260048036038101906102ad9190613ae9565b610839565b6040516102bf91906143fe565b60405180910390f35b6102d0610868565b6040516102dd9190614a0e565b60405180910390f35b6102ee610871565b6040516102fb9190614419565b60405180910390f35b61031e60048036038101906103199190613bd6565b610880565b60405161032b91906143fe565b60405180910390f35b61034e60048036038101906103499190613bd6565b61092a565b60405161035b91906149af565b60405180910390f35b61036c6109be565b005b61038860048036038101906103839190613bd6565b610a44565b005b6103a4600480360381019061039f9190613d80565b610ace565b005b6103c060048036038101906103bb9190613bd6565b610ae2565b6040516103cd91906149af565b60405180910390f35b6103f060048036038101906103eb9190613a84565b610b52565b6040516103fd9190614387565b60405180910390f35b610420600480360381019061041b9190613a84565b610bbb565b005b61042a610bcf565b60405161043791906143fe565b60405180910390f35b61045a60048036038101906104559190613d00565b610be6565b60405161046791906143fe565b60405180910390f35b61048a60048036038101906104859190613a84565b610de2565b60405161049791906149af565b60405180910390f35b6104ba60048036038101906104b59190613a84565b610e59565b6040516104c791906149f3565b60405180910390f35b6104ea60048036038101906104e59190613a84565b610ead565b6040516104f791906149af565b60405180910390f35b610508610ef5565b005b610524600480360381019061051f9190613bd6565b610f7d565b005b610540600480360381019061053b9190613a84565b610f9d565b60405161054d91906149af565b60405180910390f35b61055e610fed565b005b610568611073565b6040516105759190614387565b60405180910390f35b61059860048036038101906105939190613d80565b61109d565b6040516105a591906149af565b60405180910390f35b6105b66110f3565b6040516105c39190614572565b60405180910390f35b6105d4611185565b005b6105f060048036038101906105eb9190613d80565b61120c565b6040516105fd91906149af565b60405180910390f35b610620600480360381019061061b9190613a84565b61123d565b60405161062d91906149af565b60405180910390f35b610650600480360381019061064b9190613bd6565b611374565b60405161065d91906143fe565b60405180910390f35b610680600480360381019061067b9190613bd6565b61145e565b60405161068d91906143fe565b60405180910390f35b6106b060048036038101906106ab9190613c12565b611481565b005b6106cc60048036038101906106c79190613b38565b611585565b005b6106e860048036038101906106e39190613bd6565b6116c7565b6040516106f591906149af565b60405180910390f35b61071860048036038101906107139190613aad565b611741565b60405161072591906149af565b60405180910390f35b61074860048036038101906107439190613c9b565b6117c8565b6040516107559190614994565b60405180910390f35b61077860048036038101906107739190613a84565b6118fe565b005b60606003805461078990614c07565b80601f01602080910402602001604051908101604052809291908181526020018280546107b590614c07565b80156108025780601f106107d757610100808354040283529160200191610802565b820191906000526020600020905b8154815290600101906020018083116107e557829003601f168201915b5050505050905090565b600080610817611dca565b9050610824818585611dd2565b600191505092915050565b6000600254905090565b600080610844611dca565b9050610851858285611f9d565b61085c858585612029565b60019150509392505050565b60006012905090565b600061087b6122aa565b905090565b60008061088b611dca565b905061091f818585600160008673ffffffffffffffffffffffffffffffffffffffff1673ffffffffffffffffffffffffffffffffffffffff16815260200190815260200160002060008973ffffffffffffffffffffffffffffffffffffffff1673ffffffffffffffffffffffffffffffffffffffff1681526020019081526020016000205461091a9190614a61565b611dd2565b600191505092915050565b600043821061096e576040517f08c379a0000000000000000000000000000000000000000000000000000000008152600401610965906145f4565b60405180910390fd5b6109b6600c60008573ffffffffffffffffffffffffffffffffffffffff1673ffffffffffffffffffffffffffffffffffffffff168152602001908152602001600020836123c4565b905092915050565b6109c6611dca565b73ffffffffffffffffffffffffffffffffffffffff166109e4611073565b73ffffffffffffffffffffffffffffffffffffffff1614610a3a576040517f08c379a0000000000000000000000000000000000000000000000000000000008152600401610a3190614834565b60405180910390fd5b610a4261251c565b565b610a4c611dca565b73ffffffffffffffffffffffffffffffffffffffff16610a6a611073565b73ffffffffffffffffffffffffffffffffffffffff1614610ac0576040517f08c379a0000000000000000000000000000000000000000000000000000000008152600401610ab790614834565b60405180910390fd5b610aca82826125be565b5050565b610adf610ad9611dca565b826125cc565b50565b6000806000610b2f84600560008873ffffffffffffffffffffffffffffffffffffffff1673ffffffffffffffffffffffffffffffffffffffff1681526020019081526020016000206125da565b9150915081610b4657610b4185610ead565b610b48565b805b9250505092915050565b6000600b60008373ffffffffffffffffffffffffffffffffffffffff1673ffffffffffffffffffffffffffffffffffffffff16815260200190815260200160002060009054906101000a900473ffffffffffffffffffffffffffffffffffffffff169050919050565b610bcc610bc6611dca565b826126f6565b50565b6000600960149054906101000a900460ff16905090565b6000610bf185610de2565b841115610c33576040517f08c379a0000000000000000000000000000000000000000000000000000000008152600401610c2a90614874565b60405180910390fd5b6000610c3f86866116c7565b9050610c4b87866125be565b7f439148f0bbc682ca079e46d6e2c2f0c1e3b820f1a291b069d8882abf8cf18dd98773ffffffffffffffffffffffffffffffffffffffff166323e30c8b338989868a8a6040518763ffffffff1660e01b8152600401610caf969594939291906143a2565b602060405180830381600087803b158015610cc957600080fd5b505af1158015610cdd573d6000803e3d6000fd5b505050506040513d601f19601f82011682018060405250810190610d019190613cd7565b14610d41576040517f08c379a0000000000000000000000000000000000000000000000000000000008152600401610d3890614774565b60405180910390fd5b6000610d4d8830611741565b90508186610d5b9190614a61565b811015610d9d576040517f08c379a0000000000000000000000000000000000000000000000000000000008152600401610d9490614934565b60405180910390fd5b610dbe8830848985610daf9190614ae8565b610db99190614ae8565b611dd2565b610dd3888388610dce9190614a61565b6125cc565b60019250505095945050505050565b60003073ffffffffffffffffffffffffffffffffffffffff168273ffffffffffffffffffffffffffffffffffffffff1614610e1e576000610e52565b610e2661082f565b7fffffffffffffffffffffffffffffffffffffffffffffffffffffffffffffffff610e519190614ae8565b5b9050919050565b6000610ea6600c60008473ffffffffffffffffffffffffffffffffffffffff1673ffffffffffffffffffffffffffffffffffffffff16815260200190815260200160002080549050611c64565b9050919050565b60008060008373ffffffffffffffffffffffffffffffffffffffff1673ffffffffffffffffffffffffffffffffffffffff168152602001908152602001600020549050919050565b610efd611dca565b73ffffffffffffffffffffffffffffffffffffffff16610f1b611073565b73ffffffffffffffffffffffffffffffffffffffff1614610f71576040517f08c379a0000000000000000000000000000000000000000000000000000000008152600401610f6890614834565b60405180910390fd5b610f7b6000612810565b565b610f8f82610f89611dca565b83611f9d565b610f9982826125cc565b5050565b6000610fe6600a60008473ffffffffffffffffffffffffffffffffffffffff1673ffffffffffffffffffffffffffffffffffffffff168152602001908152602001600020611dbc565b9050919050565b610ff5611dca565b73ffffffffffffffffffffffffffffffffffffffff16611013611073565b73ffffffffffffffffffffffffffffffffffffffff1614611069576040517f08c379a000000000000000000000000000000000000000000000000000000000815260040161106090614834565b60405180910390fd5b6110716128d6565b565b6000600960009054906101000a900473ffffffffffffffffffffffffffffffffffffffff16905090565b60004382106110e1576040517f08c379a00000000000000000000000000000000000000000000000000000000081526004016110d8906145f4565b60405180910390fd5b6110ec600d836123c4565b9050919050565b60606004805461110290614c07565b80601f016020809104026020016040519081016040528092919081815260200182805461112e90614c07565b801561117b5780601f106111505761010080835404028352916020019161117b565b820191906000526020600020905b81548152906001019060200180831161115e57829003601f168201915b5050505050905090565b61118d611dca565b73ffffffffffffffffffffffffffffffffffffffff166111ab611073565b73ffffffffffffffffffffffffffffffffffffffff1614611201576040517f08c379a00000000000000000000000000000000000000000000000000000000081526004016111f890614834565b60405180910390fd5b611209612979565b50565b600080600061121c8460066125da565b91509150816112325761122d61082f565b611234565b805b92505050919050565b600080600c60008473ffffffffffffffffffffffffffffffffffffffff1673ffffffffffffffffffffffffffffffffffffffff1681526020019081526020016000208054905090506000811461134b57600c60008473ffffffffffffffffffffffffffffffffffffffff1673ffffffffffffffffffffffffffffffffffffffff1681526020019081526020016000206001826112d99190614ae8565b81548110611310577f4e487b7100000000000000000000000000000000000000000000000000000000600052603260045260246000fd5b9060005260206000200160000160049054906101000a90047bffffffffffffffffffffffffffffffffffffffffffffffffffffffff1661134e565b60005b7bffffffffffffffffffffffffffffffffffffffffffffffffffffffff16915050919050565b60008061137f611dca565b90506000600160008373ffffffffffffffffffffffffffffffffffffffff1673ffffffffffffffffffffffffffffffffffffffff16815260200190815260200160002060008673ffffffffffffffffffffffffffffffffffffffff1673ffffffffffffffffffffffffffffffffffffffff16815260200190815260200160002054905083811015611445576040517f08c379a000000000000000000000000000000000000000000000000000000000815260040161143c90614954565b60405180910390fd5b6114528286868403611dd2565b60019250505092915050565b600080611469611dca565b9050611476818585612029565b600191505092915050565b834211156114c4576040517f08c379a00000000000000000000000000000000000000000000000000000000081526004016114bb90614634565b60405180910390fd5b600061152661151e7fe48329057bfd03d55e49b547132e39cffd9c1820ad7b9d4c5307691425d15adf8989896040516020016115039493929190614495565b604051602081830303815290604052805190602001206129cf565b8585856129e9565b905061153181612a14565b8614611572576040517f08c379a000000000000000000000000000000000000000000000000000000000815260040161156990614694565b60405180910390fd5b61157c81886126f6565b50505050505050565b834211156115c8576040517f08c379a00000000000000000000000000000000000000000000000000000000081526004016115bf90614714565b60405180910390fd5b60007f00000000000000000000000000000000000000000000000000000000000000008888886115f78c612a14565b8960405160200161160d96959493929190614434565b6040516020818303038152906040528051906020012090506000611630826129cf565b90506000611640828787876129e9565b90508973ffffffffffffffffffffffffffffffffffffffff168173ffffffffffffffffffffffffffffffffffffffff16146116b0576040517f08c379a00000000000000000000000000000000000000000000000000000000081526004016116a7906147f4565b60405180910390fd5b6116bb8a8a8a611dd2565b50505050505050505050565b60003073ffffffffffffffffffffffffffffffffffffffff168373ffffffffffffffffffffffffffffffffffffffff1614611737576040517f08c379a000000000000000000000000000000000000000000000000000000000815260040161172e906147b4565b60405180910390fd5b6000905092915050565b6000600160008473ffffffffffffffffffffffffffffffffffffffff1673ffffffffffffffffffffffffffffffffffffffff16815260200190815260200160002060008373ffffffffffffffffffffffffffffffffffffffff1673ffffffffffffffffffffffffffffffffffffffff16815260200190815260200160002054905092915050565b6117d0613969565b600c60008473ffffffffffffffffffffffffffffffffffffffff1673ffffffffffffffffffffffffffffffffffffffff1681526020019081526020016000208263ffffffff168154811061184d577f4e487b7100000000000000000000000000000000000000000000000000000000600052603260045260246000fd5b906000526020600020016040518060400160405290816000820160009054906101000a900463ffffffff1663ffffffff1663ffffffff1681526020016000820160049054906101000a90047bffffffffffffffffffffffffffffffffffffffffffffffffffffffff167bffffffffffffffffffffffffffffffffffffffffffffffffffffffff167bffffffffffffffffffffffffffffffffffffffffffffffffffffffff1681525050905092915050565b611906611dca565b73ffffffffffffffffffffffffffffffffffffffff16611924611073565b73ffffffffffffffffffffffffffffffffffffffff161461197a576040517f08c379a000000000000000000000000000000000000000000000000000000000815260040161197190614834565b60405180910390fd5b600073ffffffffffffffffffffffffffffffffffffffff168173ffffffffffffffffffffffffffffffffffffffff1614156119ea576040517f08c379a00000000000000000000000000000000000000000000000000000000081526004016119e1906146b4565b60405180910390fd5b6119f381612810565b50565b611a008282611a83565b611a08612a72565b7bffffffffffffffffffffffffffffffffffffffffffffffffffffffff16611a2e61082f565b1115611a6f576040517f08c379a0000000000000000000000000000000000000000000000000000000008152600401611a6690614814565b60405180910390fd5b611a7d600d611be383612a96565b50505050565b600073ffffffffffffffffffffffffffffffffffffffff168273ffffffffffffffffffffffffffffffffffffffff161415611af3576040517f08c379a0000000000000000000000000000000000000000000000000000000008152600401611aea90614974565b60405180910390fd5b611aff60008383612d80565b8060026000828254611b119190614a61565b92505081905550806000808473ffffffffffffffffffffffffffffffffffffffff1673ffffffffffffffffffffffffffffffffffffffff1681526020019081526020016000206000828254611b669190614a61565b925050819055508173ffffffffffffffffffffffffffffffffffffffff16600073ffffffffffffffffffffffffffffffffffffffff167fddf252ad1be2c89b69c2b068fc378daa952ba7f163c4a11628f55a4df523b3ef83604051611bcb91906149af565b60405180910390a3611bdf60008383612dd8565b5050565b60008183611bf19190614a61565b905092915050565b60007bffffffffffffffffffffffffffffffffffffffffffffffffffffffff8016821115611c5c576040517f08c379a0000000000000000000000000000000000000000000000000000000008152600401611c5390614854565b60405180910390fd5b819050919050565b600063ffffffff8016821115611caf576040517f08c379a0000000000000000000000000000000000000000000000000000000008152600401611ca6906148d4565b60405180910390fd5b819050919050565b611cc2838383611d9c565b600073ffffffffffffffffffffffffffffffffffffffff168373ffffffffffffffffffffffffffffffffffffffff161415611d0d57611d0082612de8565b611d08612e3b565b611d6c565b600073ffffffffffffffffffffffffffffffffffffffff168273ffffffffffffffffffffffffffffffffffffffff161415611d5857611d4b83612de8565b611d53612e3b565b611d6b565b611d6183612de8565b611d6a82612de8565b5b5b505050565b611d7c838383611da1565b611d97611d8884610b52565b611d9184610b52565b83612e4f565b505050565b505050565b505050565b60008183611db49190614ae8565b905092915050565b600081600001549050919050565b600033905090565b600073ffffffffffffffffffffffffffffffffffffffff168373ffffffffffffffffffffffffffffffffffffffff161415611e42576040517f08c379a0000000000000000000000000000000000000000000000000000000008152600401611e39906148f4565b60405180910390fd5b600073ffffffffffffffffffffffffffffffffffffffff168273ffffffffffffffffffffffffffffffffffffffff161415611eb2576040517f08c379a0000000000000000000000000000000000000000000000000000000008152600401611ea9906146d4565b60405180910390fd5b80600160008573ffffffffffffffffffffffffffffffffffffffff1673ffffffffffffffffffffffffffffffffffffffff16815260200190815260200160002060008473ffffffffffffffffffffffffffffffffffffffff1673ffffffffffffffffffffffffffffffffffffffff168152602001908152602001600020819055508173ffffffffffffffffffffffffffffffffffffffff168373ffffffffffffffffffffffffffffffffffffffff167f8c5be1e5ebec7d5bd14f71427d1e84f3dd0314c0f7b2291e5b200ac8c7c3b92583604051611f9091906149af565b60405180910390a3505050565b6000611fa98484611741565b90507fffffffffffffffffffffffffffffffffffffffffffffffffffffffffffffffff81146120235781811015612015576040517f08c379a000000000000000000000000000000000000000000000000000000000815260040161200c906146f4565b60405180910390fd5b6120228484848403611dd2565b5b50505050565b600073ffffffffffffffffffffffffffffffffffffffff168373ffffffffffffffffffffffffffffffffffffffff161415612099576040517f08c379a0000000000000000000000000000000000000000000000000000000008152600401612090906148b4565b60405180910390fd5b600073ffffffffffffffffffffffffffffffffffffffff168273ffffffffffffffffffffffffffffffffffffffff161415612109576040517f08c379a0000000000000000000000000000000000000000000000000000000008152600401612100906145d4565b60405180910390fd5b612114838383612d80565b60008060008573ffffffffffffffffffffffffffffffffffffffff1673ffffffffffffffffffffffffffffffffffffffff1681526020019081526020016000205490508181101561219a576040517f08c379a000000000000000000000000000000000000000000000000000000000815260040161219190614734565b60405180910390fd5b8181036000808673ffffffffffffffffffffffffffffffffffffffff1673ffffffffffffffffffffffffffffffffffffffff16815260200190815260200160002081905550816000808573ffffffffffffffffffffffffffffffffffffffff1673ffffffffffffffffffffffffffffffffffffffff168152602001908152602001600020600082825461222d9190614a61565b925050819055508273ffffffffffffffffffffffffffffffffffffffff168473ffffffffffffffffffffffffffffffffffffffff167fddf252ad1be2c89b69c2b068fc378daa952ba7f163c4a11628f55a4df523b3ef8460405161229191906149af565b60405180910390a36122a4848484612dd8565b50505050565b60007f000000000000000000000000000000000000000000000000000000000000000073ffffffffffffffffffffffffffffffffffffffff163073ffffffffffffffffffffffffffffffffffffffff1614801561232657507f000000000000000000000000000000000000000000000000000000000000000046145b15612353577f000000000000000000000000000000000000000000000000000000000000000090506123c1565b6123be7f00000000000000000000000000000000000000000000000000000000000000007f00000000000000000000000000000000000000000000000000000000000000007f0000000000000000000000000000000000000000000000000000000000000000613048565b90505b90565b6000808380549050905060005b818110156124695760006123e58284613082565b905084868281548110612421577f4e487b7100000000000000000000000000000000000000000000000000000000600052603260045260246000fd5b9060005260206000200160000160009054906101000a900463ffffffff1663ffffffff16111561245357809250612463565b6001816124609190614a61565b91505b506123d1565b600082146124f1578460018361247f9190614ae8565b815481106124b6577f4e487b7100000000000000000000000000000000000000000000000000000000600052603260045260246000fd5b9060005260206000200160000160049054906101000a90047bffffffffffffffffffffffffffffffffffffffffffffffffffffffff166124f4565b60005b7bffffffffffffffffffffffffffffffffffffffffffffffffffffffff169250505092915050565b612524610bcf565b612563576040517f08c379a000000000000000000000000000000000000000000000000000000000815260040161255a90614614565b60405180910390fd5b6000600960146101000a81548160ff0219169083151502179055507f5db9ee0a495bf2e6ff9c91a7834c1ba4fdd244a5e8aa4e537bd38aeae4b073aa6125a7611dca565b6040516125b49190614387565b60405180910390a1565b6125c882826119f6565b5050565b6125d682826130a8565b5050565b60008060008411612620576040517f08c379a000000000000000000000000000000000000000000000000000000000815260040161261790614914565b60405180910390fd5b6126286130c6565b84111561266a576040517f08c379a0000000000000000000000000000000000000000000000000000000008152600401612661906145b4565b60405180910390fd5b600061268285856000016130d790919063ffffffff16565b905083600001805490508114156126a05760008092509250506126ef565b60018460010182815481106126de577f4e487b7100000000000000000000000000000000000000000000000000000000600052603260045260246000fd5b906000526020600020015492509250505b9250929050565b600061270183610b52565b9050600061270e84610ead565b905082600b60008673ffffffffffffffffffffffffffffffffffffffff1673ffffffffffffffffffffffffffffffffffffffff16815260200190815260200160002060006101000a81548173ffffffffffffffffffffffffffffffffffffffff021916908373ffffffffffffffffffffffffffffffffffffffff1602179055508273ffffffffffffffffffffffffffffffffffffffff168273ffffffffffffffffffffffffffffffffffffffff168573ffffffffffffffffffffffffffffffffffffffff167f3134e8a2e6d97e929a7e54011ea5485d7d196dd5f0ba4d4ef95803e8e3fc257f60405160405180910390a461280a828483612e4f565b50505050565b6000600960009054906101000a900473ffffffffffffffffffffffffffffffffffffffff16905081600960006101000a81548173ffffffffffffffffffffffffffffffffffffffff021916908373ffffffffffffffffffffffffffffffffffffffff1602179055508173ffffffffffffffffffffffffffffffffffffffff168173ffffffffffffffffffffffffffffffffffffffff167f8be0079c531659141344cd1fd0a4f28419497f9722a3daafe3b4186f6b6457e060405160405180910390a35050565b6128de610bcf565b1561291e576040517f08c379a000000000000000000000000000000000000000000000000000000000815260040161291590614794565b60405180910390fd5b6001600960146101000a81548160ff0219169083151502179055507f62e78cea01bee320cd4e420270b5ea74000d11b0c9f74754ebdbfc544b05a258612962611dca565b60405161296f9190614387565b60405180910390a1565b600061298560086131fd565b600061298f6130c6565b90507f8030e83b04d87bef53480e26263266d6ca66863aa8506aca6f2559d18aa1cb67816040516129c091906149af565b60405180910390a18091505090565b60006129e26129dc6122aa565b83613213565b9050919050565b60008060006129fa87878787613246565b91509150612a0781613353565b8192505050949350505050565b600080600a60008473ffffffffffffffffffffffffffffffffffffffff1673ffffffffffffffffffffffffffffffffffffffff1681526020019081526020016000209050612a6181611dbc565b9150612a6c816131fd565b50919050565b60007bffffffffffffffffffffffffffffffffffffffffffffffffffffffff905090565b60008060008580549050905060008114612b2a5785600182612ab89190614ae8565b81548110612aef577f4e487b7100000000000000000000000000000000000000000000000000000000600052603260045260246000fd5b9060005260206000200160000160049054906101000a90047bffffffffffffffffffffffffffffffffffffffffffffffffffffffff16612b2d565b60005b7bffffffffffffffffffffffffffffffffffffffffffffffffffffffff169250612b5b83858763ffffffff16565b9150600081118015612bd457504386600183612b779190614ae8565b81548110612bae577f4e487b7100000000000000000000000000000000000000000000000000000000600052603260045260246000fd5b9060005260206000200160000160009054906101000a900463ffffffff1663ffffffff16145b15612c8757612be282611bf9565b86600183612bf09190614ae8565b81548110612c27577f4e487b7100000000000000000000000000000000000000000000000000000000600052603260045260246000fd5b9060005260206000200160000160046101000a8154817bffffffffffffffffffffffffffffffffffffffffffffffffffffffff02191690837bffffffffffffffffffffffffffffffffffffffffffffffffffffffff160217905550612d77565b856040518060400160405280612c9c43611c64565b63ffffffff168152602001612cb085611bf9565b7bffffffffffffffffffffffffffffffffffffffffffffffffffffffff168152509080600181540180825580915050600190039060005260206000200160009091909190915060008201518160000160006101000a81548163ffffffff021916908363ffffffff16021790555060208201518160000160046101000a8154817bffffffffffffffffffffffffffffffffffffffffffffffffffffffff02191690837bffffffffffffffffffffffffffffffffffffffffffffffffffffffff16021790555050505b50935093915050565b612d88610bcf565b15612dc8576040517f08c379a0000000000000000000000000000000000000000000000000000000008152600401612dbf90614794565b60405180910390fd5b612dd3838383611cb7565b505050565b612de3838383611d71565b505050565b612e38600560008373ffffffffffffffffffffffffffffffffffffffff1673ffffffffffffffffffffffffffffffffffffffff168152602001908152602001600020612e3383610ead565b6136a4565b50565b612e4d6006612e4861082f565b6136a4565b565b8173ffffffffffffffffffffffffffffffffffffffff168373ffffffffffffffffffffffffffffffffffffffff1614158015612e8b5750600081115b1561304357600073ffffffffffffffffffffffffffffffffffffffff168373ffffffffffffffffffffffffffffffffffffffff1614612f6957600080612f12600c60008773ffffffffffffffffffffffffffffffffffffffff1673ffffffffffffffffffffffffffffffffffffffff168152602001908152602001600020611da685612a96565b915091508473ffffffffffffffffffffffffffffffffffffffff167fdec2bacdd2f05b59de34da9b523dff8be42e5e38e818c82fdb0bae774387a7248383604051612f5e9291906149ca565b60405180910390a250505b600073ffffffffffffffffffffffffffffffffffffffff168273ffffffffffffffffffffffffffffffffffffffff161461304257600080612feb600c60008673ffffffffffffffffffffffffffffffffffffffff1673ffffffffffffffffffffffffffffffffffffffff168152602001908152602001600020611be385612a96565b915091508373ffffffffffffffffffffffffffffffffffffffff167fdec2bacdd2f05b59de34da9b523dff8be42e5e38e818c82fdb0bae774387a72483836040516130379291906149ca565b60405180910390a250505b5b505050565b600083838346306040516020016130639594939291906144da565b6040516020818303038152906040528051906020012090509392505050565b600060028284186130939190614ab7565b8284166130a09190614a61565b905092915050565b6130b2828261371f565b6130c0600d611da683612a96565b50505050565b60006130d26008611dbc565b905090565b600080838054905014156130ee57600090506131f7565b600080848054905090505b8082101561317857600061310d8383613082565b905084868281548110613149577f4e487b7100000000000000000000000000000000000000000000000000000000600052603260045260246000fd5b9060005260206000200154111561316257809150613172565b60018161316f9190614a61565b92505b506130f9565b6000821180156131d6575083856001846131929190614ae8565b815481106131c9577f4e487b7100000000000000000000000000000000000000000000000000000000600052603260045260246000fd5b9060005260206000200154145b156131f1576001826131e89190614ae8565b925050506131f7565b81925050505b92915050565b6001816000016000828254019250508190555050565b60008282604051602001613228929190614350565b60405160208183030381529060405280519060200120905092915050565b6000807f7fffffffffffffffffffffffffffffff5d576e7357a4501ddfe92f46681b20a08360001c111561328157600060039150915061334a565b601b8560ff16141580156132995750601c8560ff1614155b156132ab57600060049150915061334a565b6000600187878787604051600081526020016040526040516132d0949392919061452d565b6020604051602081039080840390855afa1580156132f2573d6000803e3d6000fd5b505050602060405103519050600073ffffffffffffffffffffffffffffffffffffffff168173ffffffffffffffffffffffffffffffffffffffff1614156133415760006001925092505061334a565b80600092509250505b94509492505050565b6000600481111561338d577f4e487b7100000000000000000000000000000000000000000000000000000000600052602160045260246000fd5b8160048111156133c6577f4e487b7100000000000000000000000000000000000000000000000000000000600052602160045260246000fd5b14156133d1576136a1565b6001600481111561340b577f4e487b7100000000000000000000000000000000000000000000000000000000600052602160045260246000fd5b816004811115613444577f4e487b7100000000000000000000000000000000000000000000000000000000600052602160045260246000fd5b1415613485576040517f08c379a000000000000000000000000000000000000000000000000000000000815260040161347c90614594565b60405180910390fd5b600260048111156134bf577f4e487b7100000000000000000000000000000000000000000000000000000000600052602160045260246000fd5b8160048111156134f8577f4e487b7100000000000000000000000000000000000000000000000000000000600052602160045260246000fd5b1415613539576040517f08c379a000000000000000000000000000000000000000000000000000000000815260040161353090614674565b60405180910390fd5b60036004811115613573577f4e487b7100000000000000000000000000000000000000000000000000000000600052602160045260246000fd5b8160048111156135ac577f4e487b7100000000000000000000000000000000000000000000000000000000600052602160045260246000fd5b14156135ed576040517f08c379a00000000000000000000000000000000000000000000000000000000081526004016135e490614754565b60405180910390fd5b600480811115613626577f4e487b7100000000000000000000000000000000000000000000000000000000600052602160045260246000fd5b81600481111561365f577f4e487b7100000000000000000000000000000000000000000000000000000000600052602160045260246000fd5b14156136a0576040517f08c379a0000000000000000000000000000000000000000000000000000000008152600401613697906147d4565b60405180910390fd5b5b50565b60006136ae6130c6565b9050806136bd846000016138f6565b101561371a5782600001819080600181540180825580915050600190039060005260206000200160009091909190915055826001018290806001815401808255809150506001900390600052602060002001600090919091909150555b505050565b600073ffffffffffffffffffffffffffffffffffffffff168273ffffffffffffffffffffffffffffffffffffffff16141561378f576040517f08c379a000000000000000000000000000000000000000000000000000000000815260040161378690614894565b60405180910390fd5b61379b82600083612d80565b60008060008473ffffffffffffffffffffffffffffffffffffffff1673ffffffffffffffffffffffffffffffffffffffff16815260200190815260200160002054905081811015613821576040517f08c379a000000000000000000000000000000000000000000000000000000000815260040161381890614654565b60405180910390fd5b8181036000808573ffffffffffffffffffffffffffffffffffffffff1673ffffffffffffffffffffffffffffffffffffffff1681526020019081526020016000208190555081600260008282546138789190614ae8565b92505081905550600073ffffffffffffffffffffffffffffffffffffffff168373ffffffffffffffffffffffffffffffffffffffff167fddf252ad1be2c89b69c2b068fc378daa952ba7f163c4a11628f55a4df523b3ef846040516138dd91906149af565b60405180910390a36138f183600084612dd8565b505050565b6000808280549050141561390d5760009050613964565b816001838054905061391f9190614ae8565b81548110613956577f4e487b7100000000000000000000000000000000000000000000000000000000600052603260045260246000fd5b906000526020600020015490505b919050565b6040518060400160405280600063ffffffff16815260200160007bffffffffffffffffffffffffffffffffffffffffffffffffffffffff1681525090565b6000813590506139b6816154b0565b92915050565b6000813590506139cb816154c7565b92915050565b6000815190506139e0816154c7565b92915050565b60008083601f8401126139f857600080fd5b8235905067ffffffffffffffff811115613a1157600080fd5b602083019150836001820283011115613a2957600080fd5b9250929050565b600081359050613a3f816154de565b92915050565b600081359050613a54816154f5565b92915050565b600081359050613a698161550c565b92915050565b600081359050613a7e81615523565b92915050565b600060208284031215613a9657600080fd5b6000613aa4848285016139a7565b91505092915050565b60008060408385031215613ac057600080fd5b6000613ace858286016139a7565b9250506020613adf858286016139a7565b9150509250929050565b600080600060608486031215613afe57600080fd5b6000613b0c868287016139a7565b9350506020613b1d868287016139a7565b9250506040613b2e86828701613a45565b9150509250925092565b600080600080600080600060e0888a031215613b5357600080fd5b6000613b618a828b016139a7565b9750506020613b728a828b016139a7565b9650506040613b838a828b01613a45565b9550506060613b948a828b01613a45565b9450506080613ba58a828b01613a6f565b93505060a0613bb68a828b016139bc565b92505060c0613bc78a828b016139bc565b91505092959891949750929550565b60008060408385031215613be957600080fd5b6000613bf7858286016139a7565b9250506020613c0885828601613a45565b9150509250929050565b60008060008060008060c08789031215613c2b57600080fd5b6000613c3989828a016139a7565b9650506020613c4a89828a01613a45565b9550506040613c5b89828a01613a45565b9450506060613c6c89828a01613a6f565b9350506080613c7d89828a016139bc565b92505060a0613c8e89828a016139bc565b9150509295509295509295565b60008060408385031215613cae57600080fd5b6000613cbc858286016139a7565b9250506020613ccd85828601613a5a565b9150509250929050565b600060208284031215613ce957600080fd5b6000613cf7848285016139d1565b91505092915050565b600080600080600060808688031215613d1857600080fd5b6000613d2688828901613a30565b9550506020613d37888289016139a7565b9450506040613d4888828901613a45565b935050606086013567ffffffffffffffff811115613d6557600080fd5b613d71888289016139e6565b92509250509295509295909350565b600060208284031215613d9257600080fd5b6000613da084828501613a45565b91505092915050565b613db281614b1c565b82525050565b613dc181614b2e565b82525050565b613dd081614b3a565b82525050565b613de7613de282614b3a565b614c39565b82525050565b6000613df98385614a34565b9350613e06838584614bc5565b613e0f83614cd0565b840190509392505050565b6000613e2582614a29565b613e2f8185614a45565b9350613e3f818560208601614bd4565b613e4881614cd0565b840191505092915050565b6000613e60601883614a45565b9150613e6b82614ce1565b602082019050919050565b6000613e83601d83614a45565b9150613e8e82614d0a565b602082019050919050565b6000613ea6602383614a45565b9150613eb182614d33565b604082019050919050565b6000613ec9601f83614a45565b9150613ed482614d82565b602082019050919050565b6000613eec601483614a45565b9150613ef782614dab565b602082019050919050565b6000613f0f601d83614a45565b9150613f1a82614dd4565b602082019050919050565b6000613f32602283614a45565b9150613f3d82614dfd565b604082019050919050565b6000613f55601f83614a45565b9150613f6082614e4c565b602082019050919050565b6000613f78601983614a45565b9150613f8382614e75565b602082019050919050565b6000613f9b602683614a45565b9150613fa682614e9e565b604082019050919050565b6000613fbe602283614a45565b9150613fc982614eed565b604082019050919050565b6000613fe1600283614a56565b9150613fec82614f3c565b600282019050919050565b6000614004601d83614a45565b915061400f82614f65565b602082019050919050565b6000614027601d83614a45565b915061403282614f8e565b602082019050919050565b600061404a602683614a45565b915061405582614fb7565b604082019050919050565b600061406d602283614a45565b915061407882615006565b604082019050919050565b6000614090602483614a45565b915061409b82615055565b604082019050919050565b60006140b3601083614a45565b91506140be826150a4565b602082019050919050565b60006140d6601b83614a45565b91506140e1826150cd565b602082019050919050565b60006140f9602283614a45565b9150614104826150f6565b604082019050919050565b600061411c601e83614a45565b915061412782615145565b602082019050919050565b600061413f603083614a45565b915061414a8261516e565b604082019050919050565b6000614162602083614a45565b915061416d826151bd565b602082019050919050565b6000614185602783614a45565b9150614190826151e6565b604082019050919050565b60006141a8602b83614a45565b91506141b382615235565b604082019050919050565b60006141cb602183614a45565b91506141d682615284565b604082019050919050565b60006141ee602583614a45565b91506141f9826152d3565b604082019050919050565b6000614211602683614a45565b915061421c82615322565b604082019050919050565b6000614234602483614a45565b915061423f82615371565b604082019050919050565b6000614257601683614a45565b9150614262826153c0565b602082019050919050565b600061427a602f83614a45565b9150614285826153e9565b604082019050919050565b600061429d602583614a45565b91506142a882615438565b604082019050919050565b60006142c0601f83614a45565b91506142cb82615487565b602082019050919050565b6040820160008201516142ec6000850182614323565b5060208201516142ff6020850182614305565b50505050565b61430e81614b76565b82525050565b61431d81614b9e565b82525050565b61432c81614ba8565b82525050565b61433b81614ba8565b82525050565b61434a81614bb8565b82525050565b600061435b82613fd4565b91506143678285613dd6565b6020820191506143778284613dd6565b6020820191508190509392505050565b600060208201905061439c6000830184613da9565b92915050565b600060a0820190506143b76000830189613da9565b6143c46020830188613da9565b6143d16040830187614314565b6143de6060830186614314565b81810360808301526143f1818486613ded565b9050979650505050505050565b60006020820190506144136000830184613db8565b92915050565b600060208201905061442e6000830184613dc7565b92915050565b600060c0820190506144496000830189613dc7565b6144566020830188613da9565b6144636040830187613da9565b6144706060830186614314565b61447d6080830185614314565b61448a60a0830184614314565b979650505050505050565b60006080820190506144aa6000830187613dc7565b6144b76020830186613da9565b6144c46040830185614314565b6144d16060830184614314565b95945050505050565b600060a0820190506144ef6000830188613dc7565b6144fc6020830187613dc7565b6145096040830186613dc7565b6145166060830185614314565b6145236080830184613da9565b9695505050505050565b60006080820190506145426000830187613dc7565b61454f6020830186614341565b61455c6040830185613dc7565b6145696060830184613dc7565b95945050505050565b6000602082019050818103600083015261458c8184613e1a565b905092915050565b600060208201905081810360008301526145ad81613e53565b9050919050565b600060208201905081810360008301526145cd81613e76565b9050919050565b600060208201905081810360008301526145ed81613e99565b9050919050565b6000602082019050818103600083015261460d81613ebc565b9050919050565b6000602082019050818103600083015261462d81613edf565b9050919050565b6000602082019050818103600083015261464d81613f02565b9050919050565b6000602082019050818103600083015261466d81613f25565b9050919050565b6000602082019050818103600083015261468d81613f48565b9050919050565b600060208201905081810360008301526146ad81613f6b565b9050919050565b600060208201905081810360008301526146cd81613f8e565b9050919050565b600060208201905081810360008301526146ed81613fb1565b9050919050565b6000602082019050818103600083015261470d81613ff7565b9050919050565b6000602082019050818103600083015261472d8161401a565b9050919050565b6000602082019050818103600083015261474d8161403d565b9050919050565b6000602082019050818103600083015261476d81614060565b9050919050565b6000602082019050818103600083015261478d81614083565b9050919050565b600060208201905081810360008301526147ad816140a6565b9050919050565b600060208201905081810360008301526147cd816140c9565b9050919050565b600060208201905081810360008301526147ed816140ec565b9050919050565b6000602082019050818103600083015261480d8161410f565b9050919050565b6000602082019050818103600083015261482d81614132565b9050919050565b6000602082019050818103600083015261484d81614155565b9050919050565b6000602082019050818103600083015261486d81614178565b9050919050565b6000602082019050818103600083015261488d8161419b565b9050919050565b600060208201905081810360008301526148ad816141be565b9050919050565b600060208201905081810360008301526148cd816141e1565b9050919050565b600060208201905081810360008301526148ed81614204565b9050919050565b6000602082019050818103600083015261490d81614227565b9050919050565b6000602082019050818103600083015261492d8161424a565b9050919050565b6000602082019050818103600083015261494d8161426d565b9050919050565b6000602082019050818103600083015261496d81614290565b9050919050565b6000602082019050818103600083015261498d816142b3565b9050919050565b60006040820190506149a960008301846142d6565b92915050565b60006020820190506149c46000830184614314565b92915050565b60006040820190506149df6000830185614314565b6149ec6020830184614314565b9392505050565b6000602082019050614a086000830184614332565b92915050565b6000602082019050614a236000830184614341565b92915050565b600081519050919050565b600082825260208201905092915050565b600082825260208201905092915050565b600081905092915050565b6000614a6c82614b9e565b9150614a7783614b9e565b9250827fffffffffffffffffffffffffffffffffffffffffffffffffffffffffffffffff03821115614aac57614aab614c43565b5b828201905092915050565b6000614ac282614b9e565b9150614acd83614b9e565b925082614add57614adc614c72565b5b828204905092915050565b6000614af382614b9e565b9150614afe83614b9e565b925082821015614b1157614b10614c43565b5b828203905092915050565b6000614b2782614b56565b9050919050565b60008115159050919050565b6000819050919050565b6000614b4f82614b1c565b9050919050565b600073ffffffffffffffffffffffffffffffffffffffff82169050919050565b60007bffffffffffffffffffffffffffffffffffffffffffffffffffffffff82169050919050565b6000819050919050565b600063ffffffff82169050919050565b600060ff82169050919050565b82818337600083830152505050565b60005b83811015614bf2578082015181840152602081019050614bd7565b83811115614c01576000848401525b50505050565b60006002820490506001821680614c1f57607f821691505b60208210811415614c3357614c32614ca1565b5b50919050565b6000819050919050565b7f4e487b7100000000000000000000000000000000000000000000000000000000600052601160045260246000fd5b7f4e487b7100000000000000000000000000000000000000000000000000000000600052601260045260246000fd5b7f4e487b7100000000000000000000000000000000000000000000000000000000600052602260045260246000fd5b6000601f19601f8301169050919050565b7f45434453413a20696e76616c6964207369676e61747572650000000000000000600082015250565b7f4552433230536e617073686f743a206e6f6e6578697374656e74206964000000600082015250565b7f45524332303a207472616e7366657220746f20746865207a65726f206164647260008201527f6573730000000000000000000000000000000000000000000000000000000000602082015250565b7f4552433230566f7465733a20626c6f636b206e6f7420796574206d696e656400600082015250565b7f5061757361626c653a206e6f7420706175736564000000000000000000000000600082015250565b7f4552433230566f7465733a207369676e61747572652065787069726564000000600082015250565b7f45524332303a206275726e20616d6f756e7420657863656564732062616c616e60008201527f6365000000000000000000000000000000000000000000000000000000000000602082015250565b7f45434453413a20696e76616c6964207369676e6174757265206c656e67746800600082015250565b7f4552433230566f7465733a20696e76616c6964206e6f6e636500000000000000600082015250565b7f4f776e61626c653a206e6577206f776e657220697320746865207a65726f206160008201527f6464726573730000000000000000000000000000000000000000000000000000602082015250565b7f45524332303a20617070726f766520746f20746865207a65726f20616464726560008201527f7373000000000000000000000000000000000000000000000000000000000000602082015250565b7f1901000000000000000000000000000000000000000000000000000000000000600082015250565b7f45524332303a20696e73756666696369656e7420616c6c6f77616e6365000000600082015250565b7f45524332305065726d69743a206578706972656420646561646c696e65000000600082015250565b7f45524332303a207472616e7366657220616d6f756e742065786365656473206260008201527f616c616e63650000000000000000000000000000000000000000000000000000602082015250565b7f45434453413a20696e76616c6964207369676e6174757265202773272076616c60008201527f7565000000000000000000000000000000000000000000000000000000000000602082015250565b7f4552433230466c6173684d696e743a20696e76616c69642072657475726e207660008201527f616c756500000000000000000000000000000000000000000000000000000000602082015250565b7f5061757361626c653a2070617573656400000000000000000000000000000000600082015250565b7f4552433230466c6173684d696e743a2077726f6e6720746f6b656e0000000000600082015250565b7f45434453413a20696e76616c6964207369676e6174757265202776272076616c60008201527f7565000000000000000000000000000000000000000000000000000000000000602082015250565b7f45524332305065726d69743a20696e76616c6964207369676e61747572650000600082015250565b7f4552433230566f7465733a20746f74616c20737570706c79207269736b73206f60008201527f766572666c6f77696e6720766f74657300000000000000000000000000000000602082015250565b7f4f776e61626c653a2063616c6c6572206973206e6f7420746865206f776e6572600082015250565b7f53616665436173743a2076616c756520646f65736e27742066697420696e203260008201527f3234206269747300000000000000000000000000000000000000000000000000602082015250565b7f4552433230466c6173684d696e743a20616d6f756e742065786365656473206d60008201527f6178466c6173684c6f616e000000000000000000000000000000000000000000602082015250565b7f45524332303a206275726e2066726f6d20746865207a65726f2061646472657360008201527f7300000000000000000000000000000000000000000000000000000000000000602082015250565b7f45524332303a207472616e736665722066726f6d20746865207a65726f20616460008201527f6472657373000000000000000000000000000000000000000000000000000000602082015250565b7f53616665436173743a2076616c756520646f65736e27742066697420696e203360008201527f3220626974730000000000000000000000000000000000000000000000000000602082015250565b7f45524332303a20617070726f76652066726f6d20746865207a65726f2061646460008201527f7265737300000000000000000000000000000000000000000000000000000000602082015250565b7f4552433230536e617073686f743a206964206973203000000000000000000000600082015250565b7f4552433230466c6173684d696e743a20616c6c6f77616e636520646f6573206e60008201527f6f7420616c6c6f7720726566756e640000000000000000000000000000000000602082015250565b7f45524332303a2064656372656173656420616c6c6f77616e63652062656c6f7760008201527f207a65726f000000000000000000000000000000000000000000000000000000602082015250565b7f45524332303a206d696e7420746f20746865207a65726f206164647265737300600082015250565b6154b981614b1c565b81146154c457600080fd5b50565b6154d081614b3a565b81146154db57600080fd5b50565b6154e781614b44565b81146154f257600080fd5b50565b6154fe81614b9e565b811461550957600080fd5b50565b61551581614ba8565b811461552057600080fd5b50565b61552c81614bb8565b811461553757600080fd5b5056fea2646970667358221220ea8e60c731f551923368e7d7b244efee3edb7246933b84f507a445236e27454164736f6c63430008020033",
  "immutableReferences": {
    "2239": [
      {
        "length": 32,
        "start": 5580
      }
    ],
    "3213": [
      {
        "length": 32,
        "start": 9005
      }
    ],
    "3215": [
      {
        "length": 32,
        "start": 8964
      }
    ],
    "3217": [
      {
        "length": 32,
        "start": 8878
      }
    ],
    "3219": [
      {
        "length": 32,
        "start": 9081
      }
    ],
    "3221": [
      {
        "length": 32,
        "start": 9114
      }
    ],
    "3223": [
      {
        "length": 32,
        "start": 9048
      }
    ]
  },
  "source": "// SPDX-License-Identifier: MIT\npragma solidity ^0.8.2;\n\nimport \"@openzeppelin/contracts/token/ERC20/ERC20.sol\";\nimport \"@openzeppelin/contracts/token/ERC20/extensions/ERC20Burnable.sol\";\nimport \"@openzeppelin/contracts/token/ERC20/extensions/ERC20Snapshot.sol\";\nimport \"@openzeppelin/contracts/access/Ownable.sol\";\nimport \"@openzeppelin/contracts/security/Pausable.sol\";\nimport \"@openzeppelin/contracts/token/ERC20/extensions/draft-ERC20Permit.sol\";\nimport \"@openzeppelin/contracts/token/ERC20/extensions/ERC20Votes.sol\";\nimport \"@openzeppelin/contracts/token/ERC20/extensions/ERC20FlashMint.sol\";\n\ncontract ColorToken is \n    ERC20, \n    ERC20Burnable, \n    ERC20Snapshot, \n    Ownable, \n    Pausable, \n    ERC20Permit, \n    ERC20Votes, \n    ERC20FlashMint \n    {\n    constructor(\n        string memory name_,\n        string memory symbol_,\n        uint256 totalSupply_,\n        uint8 decimals_\n        )ERC20(name_,symbol_) ERC20Permit(name_) \n        {\n            totalSupply_=totalSupply_*(10**uint256(decimals_));\n            _mint(msg.sender, totalSupply_);\n    }\n\n    function snapshot() public onlyOwner {\n        _snapshot();\n    }\n\n    function pause() public onlyOwner {\n        _pause();\n    }\n\n    function unpause() public onlyOwner {\n        _unpause();\n    }\n\n    function mint(address to, uint256 amount) public onlyOwner {\n        _mint(to, amount);\n    }\n\n    function _beforeTokenTransfer(address from, address to, uint256 amount)\n        internal\n        whenNotPaused\n        override(ERC20, ERC20Snapshot)\n    {\n        super._beforeTokenTransfer(from, to, amount);\n    }\n\n    // The following functions are overrides required by Solidity.\n\n    function _afterTokenTransfer(address from, address to, uint256 amount)\n        internal\n        override(ERC20, ERC20Votes)\n    {\n        super._afterTokenTransfer(from, to, amount);\n    }\n\n    function _mint(address to, uint256 amount)\n        internal\n        override(ERC20, ERC20Votes)\n    {\n        super._mint(to, amount);\n    }\n\n    function _burn(address account, uint256 amount)\n        internal\n        override(ERC20, ERC20Votes)\n    {\n        super._burn(account, amount);\n    }\n}\n",
  "sourcePath": "/home/user/Training/vx-token/erc 20/contracts/ColorToken.sol",
  "compiler": {
    "name": "solc",
    "version": "0.8.2+commit.661d1103.Emscripten.clang"
  },
  "schemaVersion": "3.4.3",
  "updatedAt": "2022-02-11T10:47:42.602Z",
  "devdoc": {
    "kind": "dev",
    "methods": {
      "DOMAIN_SEPARATOR()": {
        "details": "See {IERC20Permit-DOMAIN_SEPARATOR}."
      },
      "allowance(address,address)": {
        "details": "See {IERC20-allowance}."
      },
      "approve(address,uint256)": {
        "details": "See {IERC20-approve}. NOTE: If `amount` is the maximum `uint256`, the allowance is not updated on `transferFrom`. This is semantically equivalent to an infinite approval. Requirements: - `spender` cannot be the zero address."
      },
      "balanceOf(address)": {
        "details": "See {IERC20-balanceOf}."
      },
      "balanceOfAt(address,uint256)": {
        "details": "Retrieves the balance of `account` at the time `snapshotId` was created."
      },
      "burn(uint256)": {
        "details": "Destroys `amount` tokens from the caller. See {ERC20-_burn}."
      },
      "burnFrom(address,uint256)": {
        "details": "Destroys `amount` tokens from `account`, deducting from the caller's allowance. See {ERC20-_burn} and {ERC20-allowance}. Requirements: - the caller must have allowance for ``accounts``'s tokens of at least `amount`."
      },
      "checkpoints(address,uint32)": {
        "details": "Get the `pos`-th checkpoint for `account`."
      },
      "decimals()": {
        "details": "Returns the number of decimals used to get its user representation. For example, if `decimals` equals `2`, a balance of `505` tokens should be displayed to a user as `5.05` (`505 / 10 ** 2`). Tokens usually opt for a value of 18, imitating the relationship between Ether and Wei. This is the value {ERC20} uses, unless this function is overridden; NOTE: This information is only used for _display_ purposes: it in no way affects any of the arithmetic of the contract, including {IERC20-balanceOf} and {IERC20-transfer}."
      },
      "decreaseAllowance(address,uint256)": {
        "details": "Atomically decreases the allowance granted to `spender` by the caller. This is an alternative to {approve} that can be used as a mitigation for problems described in {IERC20-approve}. Emits an {Approval} event indicating the updated allowance. Requirements: - `spender` cannot be the zero address. - `spender` must have allowance for the caller of at least `subtractedValue`."
      },
      "delegate(address)": {
        "details": "Delegate votes from the sender to `delegatee`."
      },
      "delegateBySig(address,uint256,uint256,uint8,bytes32,bytes32)": {
        "details": "Delegates votes from signer to `delegatee`"
      },
      "delegates(address)": {
        "details": "Get the address `account` is currently delegating to."
      },
      "flashFee(address,uint256)": {
        "details": "Returns the fee applied when doing flash loans. By default this implementation has 0 fees. This function can be overloaded to make the flash loan mechanism deflationary.",
        "params": {
          "amount": "The amount of tokens to be loaned.",
          "token": "The token to be flash loaned."
        },
        "returns": {
          "_0": "The fees applied to the corresponding flash loan."
        }
      },
      "flashLoan(address,address,uint256,bytes)": {
        "details": "Performs a flash loan. New tokens are minted and sent to the `receiver`, who is required to implement the {IERC3156FlashBorrower} interface. By the end of the flash loan, the receiver is expected to own amount + fee tokens and have them approved back to the token contract itself so they can be burned.",
        "params": {
          "amount": "The amount of tokens to be loaned.",
          "data": "An arbitrary datafield that is passed to the receiver.",
          "receiver": "The receiver of the flash loan. Should implement the {IERC3156FlashBorrower.onFlashLoan} interface.",
          "token": "The token to be flash loaned. Only `address(this)` is supported."
        },
        "returns": {
          "_0": "`true` is the flash loan was successful."
        }
      },
      "getPastTotalSupply(uint256)": {
        "details": "Retrieve the `totalSupply` at the end of `blockNumber`. Note, this value is the sum of all balances. It is but NOT the sum of all the delegated votes! Requirements: - `blockNumber` must have been already mined"
      },
      "getPastVotes(address,uint256)": {
        "details": "Retrieve the number of votes for `account` at the end of `blockNumber`. Requirements: - `blockNumber` must have been already mined"
      },
      "getVotes(address)": {
        "details": "Gets the current votes balance for `account`"
      },
      "increaseAllowance(address,uint256)": {
        "details": "Atomically increases the allowance granted to `spender` by the caller. This is an alternative to {approve} that can be used as a mitigation for problems described in {IERC20-approve}. Emits an {Approval} event indicating the updated allowance. Requirements: - `spender` cannot be the zero address."
      },
      "maxFlashLoan(address)": {
        "details": "Returns the maximum amount of tokens available for loan.",
        "params": {
          "token": "The address of the token that is requested."
        },
        "returns": {
          "_0": "The amont of token that can be loaned."
        }
      },
      "name()": {
        "details": "Returns the name of the token."
      },
      "nonces(address)": {
        "details": "See {IERC20Permit-nonces}."
      },
      "numCheckpoints(address)": {
        "details": "Get number of checkpoints for `account`."
      },
      "owner()": {
        "details": "Returns the address of the current owner."
      },
      "paused()": {
        "details": "Returns true if the contract is paused, and false otherwise."
      },
      "permit(address,address,uint256,uint256,uint8,bytes32,bytes32)": {
        "details": "See {IERC20Permit-permit}."
      },
      "renounceOwnership()": {
        "details": "Leaves the contract without owner. It will not be possible to call `onlyOwner` functions anymore. Can only be called by the current owner. NOTE: Renouncing ownership will leave the contract without an owner, thereby removing any functionality that is only available to the owner."
      },
      "symbol()": {
        "details": "Returns the symbol of the token, usually a shorter version of the name."
      },
      "totalSupply()": {
        "details": "See {IERC20-totalSupply}."
      },
      "totalSupplyAt(uint256)": {
        "details": "Retrieves the total supply at the time `snapshotId` was created."
      },
      "transfer(address,uint256)": {
        "details": "See {IERC20-transfer}. Requirements: - `to` cannot be the zero address. - the caller must have a balance of at least `amount`."
      },
      "transferFrom(address,address,uint256)": {
        "details": "See {IERC20-transferFrom}. Emits an {Approval} event indicating the updated allowance. This is not required by the EIP. See the note at the beginning of {ERC20}. NOTE: Does not update the allowance if the current allowance is the maximum `uint256`. Requirements: - `from` and `to` cannot be the zero address. - `from` must have a balance of at least `amount`. - the caller must have allowance for ``from``'s tokens of at least `amount`."
      },
      "transferOwnership(address)": {
        "details": "Transfers ownership of the contract to a new account (`newOwner`). Can only be called by the current owner."
      }
    },
    "version": 1
  },
  "userdoc": {
    "kind": "user",
    "methods": {},
    "version": 1
  }
}